{
  "_format": "hh-sol-artifact-1",
  "contractName": "MerkleAirdrop",
  "sourceName": "contracts/MerkleAirdrop.sol",
  "abi": [
    {
      "inputs": [
        {
          "internalType": "address",
          "name": "_token",
          "type": "address"
        },
        {
          "internalType": "bytes32",
          "name": "_merkleRoot",
          "type": "bytes32"
        },
        {
          "internalType": "bytes32[]",
          "name": "_proof",
          "type": "bytes32[]"
        }
      ],
      "stateMutability": "nonpayable",
      "type": "constructor"
    },
    {
      "anonymous": false,
      "inputs": [
        {
          "indexed": true,
          "internalType": "address",
          "name": "reciever",
          "type": "address"
        },
        {
          "indexed": false,
          "internalType": "uint256",
          "name": "amount",
          "type": "uint256"
        }
      ],
      "name": "AirdropClaimed",
      "type": "event"
    },
    {
      "anonymous": false,
      "inputs": [
        {
          "indexed": true,
          "internalType": "bytes32",
          "name": "newMerkleRoot",
          "type": "bytes32"
        }
      ],
      "name": "MerkleRootUpdated",
      "type": "event"
    },
    {
      "anonymous": false,
      "inputs": [
        {
          "indexed": true,
          "internalType": "address",
          "name": "owner",
          "type": "address"
        },
        {
          "indexed": false,
          "internalType": "uint256",
          "name": "amount",
          "type": "uint256"
        }
      ],
      "name": "TokensWithdrawn",
      "type": "event"
    },
    {
      "inputs": [],
      "name": "baycToken",
      "outputs": [
        {
          "internalType": "address",
          "name": "",
          "type": "address"
        }
      ],
      "stateMutability": "view",
      "type": "function"
    },
    {
      "inputs": [],
      "name": "checkProof",
      "outputs": [
        {
          "internalType": "bytes32[]",
          "name": "",
          "type": "bytes32[]"
        }
      ],
      "stateMutability": "view",
      "type": "function"
    },
    {
      "inputs": [
        {
          "internalType": "uint256",
          "name": "amount",
          "type": "uint256"
        }
      ],
      "name": "checkQualification",
      "outputs": [
        {
          "internalType": "bool",
          "name": "",
          "type": "bool"
        }
      ],
      "stateMutability": "view",
      "type": "function"
    },
    {
      "inputs": [],
      "name": "claimAirdrop",
      "outputs": [],
      "stateMutability": "nonpayable",
      "type": "function"
    },
    {
      "inputs": [
        {
          "internalType": "address",
          "name": "",
          "type": "address"
        }
      ],
      "name": "claimed",
      "outputs": [
        {
          "internalType": "bool",
          "name": "",
          "type": "bool"
        }
      ],
      "stateMutability": "view",
      "type": "function"
    },
    {
      "inputs": [],
      "name": "merkleRoot",
      "outputs": [
        {
          "internalType": "bytes32",
          "name": "",
          "type": "bytes32"
        }
      ],
      "stateMutability": "view",
      "type": "function"
    },
    {
      "inputs": [],
      "name": "owner",
      "outputs": [
        {
          "internalType": "address",
          "name": "",
          "type": "address"
        }
      ],
      "stateMutability": "view",
      "type": "function"
    },
    {
      "inputs": [
        {
          "internalType": "uint256",
          "name": "",
          "type": "uint256"
        }
      ],
      "name": "proof",
      "outputs": [
        {
          "internalType": "bytes32",
          "name": "",
          "type": "bytes32"
        }
      ],
      "stateMutability": "view",
      "type": "function"
    },
    {
      "inputs": [],
      "name": "token",
      "outputs": [
        {
          "internalType": "contract IERC20",
          "name": "",
          "type": "address"
        }
      ],
      "stateMutability": "view",
      "type": "function"
    },
    {
      "inputs": [
        {
          "internalType": "bytes32",
          "name": "_newMerkleRoot",
          "type": "bytes32"
        }
      ],
      "name": "updateMerkleRoot",
      "outputs": [],
      "stateMutability": "nonpayable",
      "type": "function"
    },
    {
      "inputs": [
        {
          "internalType": "uint256",
          "name": "amount",
          "type": "uint256"
        }
      ],
      "name": "withdrawTokens",
      "outputs": [],
      "stateMutability": "nonpayable",
      "type": "function"
    }
  ],
  "bytecode": "0x608060405273bc4ca0eda7647a8ab7c2061c2e118a18a936f13d600460006101000a81548173ffffffffffffffffffffffffffffffffffffffff021916908373ffffffffffffffffffffffffffffffffffffffff1602179055503480156200006657600080fd5b50604051620018133803806200181383398181016040528101906200008c9190620003d0565b826000806101000a81548173ffffffffffffffffffffffffffffffffffffffff021916908373ffffffffffffffffffffffffffffffffffffffff1602179055508160018190555033600260006101000a81548173ffffffffffffffffffffffffffffffffffffffff021916908373ffffffffffffffffffffffffffffffffffffffff16021790555080600390805190602001906200012c92919062000136565b505050506200044b565b82805482825590600052602060002090810192821562000175579160200282015b828111156200017457825182559160200191906001019062000157565b5b50905062000184919062000188565b5090565b5b80821115620001a357600081600090555060010162000189565b5090565b6000604051905090565b600080fd5b600080fd5b600073ffffffffffffffffffffffffffffffffffffffff82169050919050565b6000620001e882620001bb565b9050919050565b620001fa81620001db565b81146200020657600080fd5b50565b6000815190506200021a81620001ef565b92915050565b6000819050919050565b620002358162000220565b81146200024157600080fd5b50565b60008151905062000255816200022a565b92915050565b600080fd5b6000601f19601f8301169050919050565b7f4e487b7100000000000000000000000000000000000000000000000000000000600052604160045260246000fd5b620002ab8262000260565b810181811067ffffffffffffffff82111715620002cd57620002cc62000271565b5b80604052505050565b6000620002e2620001a7565b9050620002f08282620002a0565b919050565b600067ffffffffffffffff82111562000313576200031262000271565b5b602082029050602081019050919050565b600080fd5b6000620003406200033a84620002f5565b620002d6565b9050808382526020820190506020840283018581111562000366576200036562000324565b5b835b818110156200039357806200037e888262000244565b84526020840193505060208101905062000368565b5050509392505050565b600082601f830112620003b557620003b46200025b565b5b8151620003c784826020860162000329565b91505092915050565b600080600060608486031215620003ec57620003eb620001b1565b5b6000620003fc8682870162000209565b93505060206200040f8682870162000244565b925050604084015167ffffffffffffffff811115620004335762000432620001b6565b5b62000441868287016200039d565b9150509250925092565b6113b8806200045b6000396000f3fe608060405234801561001057600080fd5b50600436106100a95760003560e01c80635b88349d116100715780635b88349d146101525780638cfee24a1461015c5780638da5cb5b1461017a578063c884ef8314610198578063dbadcb13146101c8578063fc0c546a146101f8576100a9565b806309efc9b7146100ae57806316e3b09c146100cc5780632eb4a7ab146100fc578063315a095d1461011a5780634783f0ef14610136575b600080fd5b6100b6610216565b6040516100c39190610c18565b60405180910390f35b6100e660048036038101906100e19190610c6e565b61023c565b6040516100f39190610cb4565b60405180910390f35b610104610260565b6040516101119190610cb4565b60405180910390f35b610134600480360381019061012f9190610c6e565b610266565b005b610150600480360381019061014b9190610cfb565b610468565b005b61015a61052f565b005b61016461097c565b6040516101719190610de6565b60405180910390f35b6101826109d4565b60405161018f9190610c18565b60405180910390f35b6101b260048036038101906101ad9190610e34565b6109fa565b6040516101bf9190610e7c565b60405180910390f35b6101e260048036038101906101dd9190610c6e565b610a1a565b6040516101ef9190610e7c565b60405180910390f35b610200610b0a565b60405161020d9190610ef6565b60405180910390f35b600460009054906101000a900473ffffffffffffffffffffffffffffffffffffffff1681565b6003818154811061024c57600080fd5b906000526020600020016000915090505481565b60015481565b600260009054906101000a900473ffffffffffffffffffffffffffffffffffffffff1673ffffffffffffffffffffffffffffffffffffffff163373ffffffffffffffffffffffffffffffffffffffff16146102f6576040517f08c379a00000000000000000000000000000000000000000000000000000000081526004016102ed90610f6e565b60405180910390fd5b60008054906101000a900473ffffffffffffffffffffffffffffffffffffffff1673ffffffffffffffffffffffffffffffffffffffff1663a9059cbb600260009054906101000a900473ffffffffffffffffffffffffffffffffffffffff16836040518363ffffffff1660e01b8152600401610373929190610f9d565b6020604051808303816000875af1158015610392573d6000803e3d6000fd5b505050506040513d601f19601f820116820180604052508101906103b69190610ff2565b6103f5576040517f08c379a00000000000000000000000000000000000000000000000000000000081526004016103ec9061106b565b60405180910390fd5b600260009054906101000a900473ffffffffffffffffffffffffffffffffffffffff1673ffffffffffffffffffffffffffffffffffffffff167f6352c5382c4a4578e712449ca65e83cdb392d045dfcf1cad9615189db2da244b8260405161045d919061108b565b60405180910390a250565b600260009054906101000a900473ffffffffffffffffffffffffffffffffffffffff1673ffffffffffffffffffffffffffffffffffffffff163373ffffffffffffffffffffffffffffffffffffffff16146104f8576040517f08c379a00000000000000000000000000000000000000000000000000000000081526004016104ef90610f6e565b60405180910390fd5b80600181905550807f90004c04698bc3322499a575ed3752dd4abf33e0a7294c06a787a0fe01bea94160405160405180910390a250565b60008073ffffffffffffffffffffffffffffffffffffffff16600260009054906101000a900473ffffffffffffffffffffffffffffffffffffffff1673ffffffffffffffffffffffffffffffffffffffff16036105c1576040517f08c379a00000000000000000000000000000000000000000000000000000000081526004016105b890611118565b60405180910390fd5b600560003373ffffffffffffffffffffffffffffffffffffffff1673ffffffffffffffffffffffffffffffffffffffff16815260200190815260200160002060009054906101000a900460ff161561064e576040517f08c379a000000000000000000000000000000000000000000000000000000000815260040161064590611184565b60405180910390fd5b6001600460009054906101000a900473ffffffffffffffffffffffffffffffffffffffff1673ffffffffffffffffffffffffffffffffffffffff166370a08231336040518263ffffffff1660e01b81526004016106ab9190610c18565b602060405180830381865afa1580156106c8573d6000803e3d6000fd5b505050506040513d601f19601f820116820180604052508101906106ec91906111b9565b1061072c576040517f08c379a000000000000000000000000000000000000000000000000000000000815260040161072390611232565b60405180910390fd5b600033826040516020016107419291906112bb565b6040516020818303038152906040528051906020012090506107b660038054806020026020016040519081016040528092919081815260200182805480156107a857602002820191906000526020600020905b815481526020019060010190808311610794575b505050505060015483610b2e565b6107f5576040517f08c379a00000000000000000000000000000000000000000000000000000000081526004016107ec90611333565b60405180910390fd5b6001600560003373ffffffffffffffffffffffffffffffffffffffff1673ffffffffffffffffffffffffffffffffffffffff16815260200190815260200160002060006101000a81548160ff02191690831515021790555060008054906101000a900473ffffffffffffffffffffffffffffffffffffffff1673ffffffffffffffffffffffffffffffffffffffff1663a9059cbb33846040518363ffffffff1660e01b81526004016108a8929190610f9d565b6020604051808303816000875af11580156108c7573d6000803e3d6000fd5b505050506040513d601f19601f820116820180604052508101906108eb9190610ff2565b61092a576040517f08c379a00000000000000000000000000000000000000000000000000000000081526004016109219061106b565b60405180910390fd5b3373ffffffffffffffffffffffffffffffffffffffff167f650e45f04ef8a0c267b2f78d983913f69ae3a353b2b32de5429307522be0ab5583604051610970919061108b565b60405180910390a25050565b606060038054806020026020016040519081016040528092919081815260200182805480156109ca57602002820191906000526020600020905b8154815260200190600101908083116109b6575b5050505050905090565b600260009054906101000a900473ffffffffffffffffffffffffffffffffffffffff1681565b60056020528060005260406000206000915054906101000a900460ff1681565b6000600560003373ffffffffffffffffffffffffffffffffffffffff1673ffffffffffffffffffffffffffffffffffffffff16815260200190815260200160002060009054906101000a900460ff1615610a775760009050610b05565b60003383604051602001610a8c9291906112bb565b604051602081830303815290604052805190602001209050610b016003805480602002602001604051908101604052809291908181526020018280548015610af357602002820191906000526020600020905b815481526020019060010190808311610adf575b505050505060015483610b2e565b9150505b919050565b60008054906101000a900473ffffffffffffffffffffffffffffffffffffffff1681565b600082610b3b8584610b45565b1490509392505050565b60008082905060005b8451811015610b8a57610b7b82868381518110610b6e57610b6d611353565b5b6020026020010151610b95565b91508080600101915050610b4e565b508091505092915050565b6000818310610bad57610ba88284610bc0565b610bb8565b610bb78383610bc0565b5b905092915050565b600082600052816020526040600020905092915050565b600073ffffffffffffffffffffffffffffffffffffffff82169050919050565b6000610c0282610bd7565b9050919050565b610c1281610bf7565b82525050565b6000602082019050610c2d6000830184610c09565b92915050565b600080fd5b6000819050919050565b610c4b81610c38565b8114610c5657600080fd5b50565b600081359050610c6881610c42565b92915050565b600060208284031215610c8457610c83610c33565b5b6000610c9284828501610c59565b91505092915050565b6000819050919050565b610cae81610c9b565b82525050565b6000602082019050610cc96000830184610ca5565b92915050565b610cd881610c9b565b8114610ce357600080fd5b50565b600081359050610cf581610ccf565b92915050565b600060208284031215610d1157610d10610c33565b5b6000610d1f84828501610ce6565b91505092915050565b600081519050919050565b600082825260208201905092915050565b6000819050602082019050919050565b610d5d81610c9b565b82525050565b6000610d6f8383610d54565b60208301905092915050565b6000602082019050919050565b6000610d9382610d28565b610d9d8185610d33565b9350610da883610d44565b8060005b83811015610dd9578151610dc08882610d63565b9750610dcb83610d7b565b925050600181019050610dac565b5085935050505092915050565b60006020820190508181036000830152610e008184610d88565b905092915050565b610e1181610bf7565b8114610e1c57600080fd5b50565b600081359050610e2e81610e08565b92915050565b600060208284031215610e4a57610e49610c33565b5b6000610e5884828501610e1f565b91505092915050565b60008115159050919050565b610e7681610e61565b82525050565b6000602082019050610e916000830184610e6d565b92915050565b6000819050919050565b6000610ebc610eb7610eb284610bd7565b610e97565b610bd7565b9050919050565b6000610ece82610ea1565b9050919050565b6000610ee082610ec3565b9050919050565b610ef081610ed5565b82525050565b6000602082019050610f0b6000830184610ee7565b92915050565b600082825260208201905092915050565b7f596f757220617265206e6f7420746865206f776e657200000000000000000000600082015250565b6000610f58601683610f11565b9150610f6382610f22565b602082019050919050565b60006020820190508181036000830152610f8781610f4b565b9050919050565b610f9781610c38565b82525050565b6000604082019050610fb26000830185610c09565b610fbf6020830184610f8e565b9392505050565b610fcf81610e61565b8114610fda57600080fd5b50565b600081519050610fec81610fc6565b92915050565b60006020828403121561100857611007610c33565b5b600061101684828501610fdd565b91505092915050565b7f546f6b656e207472616e73666572206661696c65642e00000000000000000000600082015250565b6000611055601683610f11565b91506110608261101f565b602082019050919050565b6000602082019050818103600083015261108481611048565b9050919050565b60006020820190506110a06000830184610f8e565b92915050565b7f496e76616c696420416464726573733a2041646472657373205a65726f20446560008201527f7465637465640000000000000000000000000000000000000000000000000000602082015250565b6000611102602683610f11565b915061110d826110a6565b604082019050919050565b60006020820190508181036000830152611131816110f5565b9050919050565b7f41697264726f7020616c726561647920636c61696d65642e0000000000000000600082015250565b600061116e601883610f11565b915061117982611138565b602082019050919050565b6000602082019050818103600083015261119d81611161565b9050919050565b6000815190506111b381610c42565b92915050565b6000602082840312156111cf576111ce610c33565b5b60006111dd848285016111a4565b91505092915050565b7f596f7520646f6e27742068617665204241594320546f6b656e2e000000000000600082015250565b600061121c601a83610f11565b9150611227826111e6565b602082019050919050565b6000602082019050818103600083015261124b8161120f565b9050919050565b60008160601b9050919050565b600061126a82611252565b9050919050565b600061127c8261125f565b9050919050565b61129461128f82610bf7565b611271565b82525050565b6000819050919050565b6112b56112b082610c38565b61129a565b82525050565b60006112c78285611283565b6014820191506112d782846112a4565b6020820191508190509392505050565b7f496e76616c69642070726f6f662e000000000000000000000000000000000000600082015250565b600061131d600e83610f11565b9150611328826112e7565b602082019050919050565b6000602082019050818103600083015261134c81611310565b9050919050565b7f4e487b7100000000000000000000000000000000000000000000000000000000600052603260045260246000fdfea264697066735822122087b91d5802a356428850712a5a0f70c73fe5aafb6c6d4e11133cbecf799a5ab364736f6c63430008180033",
  "linkReferences": {},
  "deployedLinkReferences": {}
}